S0140000526F626F7450726F6A6563742E7372656333
S11300000C9434000C943E000C943E000C943E007E
S11300100C943E000C943E000C943E000C943E0064
S11300200C943E000C943E000C943E000C943E0054
S11300300C943E000C943E000C943E000C943E0044
S11300400C94CF000C943E000C943E000C943E00A3
S11300500C943E000C943E000C943E000C943E0024
S11300600C943E000C943E0011241FBECFEFD8E048
S1130070DEBFCDBF0E94D9000C94AD010C940000EA
S11300808AB180688AB984B1896084B98BB18F7769
S11300908BB985B1867F85B9089583B123B193B1B6
S11300A0813021F0903811F4283019F1813021F099
S11300B0903811F0283011F1813021F4903811F486
S11300C0283009F1813021F0903811F0283001F501
S11300D0813021F4903811F42830F9F4813011F58D
S11300E0903829F1283041F560E070E088EC92EC1A
S11300F008956AE979E989E99EEB08956AE979E95D
S113010089E99EE3089560E070E080E49FE3089548
S113011060E070E080E49FEB089560E070E080E8C8
S11301209FE3089560E070E088EC92EC089560E04D
S113013070E088EC92EC089560E070E080E89FEB5A
S113014008959B0185369105F0F47723E4F0653634
S11301507105CCF44FEF489FB001499F700D1124F5
S1130160E4E6F0E0CB01BF010E94850168BD429F37
S1130170C001439F900D1124BF010E94850167BDFA
S113018085B5856085BD08958AB180668AB97894FD
S113019084B5836A84BD81E080936E0008951F92C4
S11301A00F920FB60F9211240F900FBE0F901F9055
S11301B018950E9440000E94C4006EE170E08EE138
S11301C090E00E94A1000E944D006B017C012AE98D
S11301D039E949E95EE30E945C01811106C063E2EA
S11301E070E08EE190E00E94A1002AE939E949E932
S11301F05EEBC701B6010E945C01811106C06EE18D
S113020070E083E290E00E94A10020E030E040E44E
S11302105FE3C701B6010E945C01811106C063E27D
S113022070E082E190E00E94A10020E030E040E430
S11302305FEBC701B6010E945C01811106C062E157
S113024070E083E290E00E94A10020E030E040E80A
S11302505FE3C701B6010E945C01811106C064E638
S113026070E080E090E00E94A10020E030E040E8EF
S11302705FEBC701B6010E945C01811106C060E01A
S113028070E084E690E00E94A10020E030E048ECB9
S113029052ECC701B6010E945C01811106C060E006
S11302A070E080E090E00E94A1008FED9EE2019753
S11302B0F1F700C0000087CF0E94610108F481E0DB
S11302C00895990F0008550FAA0BE0E8FEEF1616E3
S11302D01706E807F907C0F012161306E407F50736
S11302E098F0621B730B840B950B39F40A2661F0AA
S11302F0232B242B252B21F408950A2609F4A1404D
S1130300A6958FEF811D811D089597FB072E16F486
S1130310009407D077FD09D00E94990107FC05D00D
S11303203EF4909581959F4F0895709561957F4F08
S11303300895AA1BBB1B51E107C0AA1FBB1FA61728
S1130340B70710F0A61BB70B881F991F5A95A9F77A
S111035080959095BC01CD010895F894FFCFDF
S9030000FC
