:100000000C9434000C9451000C9451000C94510049
:100010000C9451000C9451000C9451000C9451001C
:100020000C9451000C9451000C9451000C9451000C
:100030000C9451000C9451000C9451000C945100FC
:100040000C9418010C9451000C9451000C94510024
:100050000C9451000C9451000C9451000C945100DC
:100060000C9451000C94510011241FBECFEFD8E026
:10007000DEBFCDBF11E0A0E0B1E0E4EEF6E002C0EB
:1000800005900D92A030B107D9F721E0A0E0B1E0D2
:1000900001C01D92A030B207E1F70E9483010C94C9
:1000A00070030C9400007894ECE7F0E080818064A9
:1000B0008083EAE7F0E08081876880830895833059
:1000C00099F028F4813041F0823051F00895843065
:1000D00079F0853089F0089581E080937C0008955F
:1000E00082E080937C00089583E080937C000895F3
:1000F00084E080937C00089585E080937C000895DF
:10010000EAE7F0E080818064808308950E945F00C8
:100110000E94800080917A0086FDFCCF809178005B
:100120009091790008950E94530008950F931F93B2
:10013000CF93DF9385E00E948600EC0183E00E946C
:1001400086008C0184E00E9486009E012A503109BD
:100150002D3A334088F598012A5031092D3A334021
:1001600080F59E01281B390B801B910B280F391F2E
:1001700036952795A3E1B3E80E944D030024880F2C
:10018000991F001C880F991F001C892F902DBC01FE
:10019000615071096230710528F46F3F8FEF780765
:1001A00021F405C061E070E002C06FEF7FEF80E0F6
:1001B00090E00E943E0209C060E070E080E89FEBA2
:1001C00004C060E070E080E89FE3DF91CF911F9171
:1001D0000F9108959B0185369105F0F47723E4F0A3
:1001E00065367105CCF44FEF489FB001499F700D03
:1001F0001124E4E6F0E0CB01BF010E94390368BDA1
:10020000429FC001439F900D1124BF010E943903FA
:1002100067BD85B5856085BD08958AB180668AB958
:10022000789484B5836A84BD81E080936E000895DC
:100230001F920F920FB60F9211240F900FBE0F90C6
:100240001F9018951092C50087E68093C40088E13E
:100250008093C100E2ECF0E0808186608083808141
:10026000877A808308954F925F926F927F928F92E8
:100270009F92AF92BF92CF92DF92EF92FF920E9435
:1002800096006B017C0120E030E040E85FE30E94D3
:100290009B0120E030E048E452EC0E94CC022B01AC
:1002A0003C0120E030E040E85FE3C701B6010E9476
:1002B0009C0120E030E048E452E40E94CC024B0173
:1002C0005C01C301B2010E9408026B017C01C501FF
:1002D000B4010E940802DC01CB01B6010E94EA00D1
:1002E0008FED9EE20197F1F700C00000FF90EF90C4
:1002F000DF90CF90BF90AF909F908F907F906F9046
:100300005F904F9008950E9493000E940D016EE14E
:1003100070E08EE190E00E94EA002FEF89EF90E01C
:10032000215080409040E1F700C000000E9422016F
:100330000E943301FDCF5058BB27AA270E94B3016A
:100340000C9492020E94840238F00E948B0220F0EA
:1003500039F49F3F19F426F40C9481020EF4E095D1
:10036000E7FB0C947B02E92F0E94A30258F3BA1713
:10037000620773078407950720F079F4A6F50C94BB
:10038000C5020EF4E0950B2EBA2FA02D0B01B9017A
:1003900090010C01CA01A0011124FF27591B99F0FB
:1003A000593F50F4503E68F11A16F040A22F232F07
:1003B000342F4427585FF3CF469537952795A79557
:1003C000F0405395C9F77EF41F16BA0B620B730BFE
:1003D000840BBAF09150A1F0FF0FBB1F661F771F6F
:1003E000881FC2F70EC0BA0F621F731F841F48F424
:1003F000879577956795B795F7959E3F08F0B0CFAD
:100400009395880F08F09927EE0F97958795089593
:100410000E940F026894B1110C94C60208950E94C4
:10042000AB0288F09F5798F0B92F9927B751B0F0D9
:10043000E1F0660F771F881F991F1AF0BA95C9F768
:1004400014C0B13091F00E94C502B1E008950C943F
:10045000C502672F782F8827B85F39F0B93FCCF3F2
:10046000869577956795B395D9F73EF490958095E5
:10047000709561957F4F8F4F9F4F0895E89409C005
:1004800097FB3EF490958095709561957F4F8F4FC7
:100490009F4F9923A9F0F92F96E9BB279395F695DD
:1004A000879577956795B795F111F8CFFAF4BB0F5B
:1004B00011F460FF1BC06F5F7F4F8F4F9F4F16C0BF
:1004C000882311F096E911C0772321F09EE8872F49
:1004D000762F05C0662371F096E8862F70E060E005
:1004E0002AF09A95660F771F881FDAF7880F96957E
:1004F000879597F9089597F99F6780E870E060E025
:1005000008959FEF80EC089500240A9416161706AC
:1005100018060906089500240A94121613061406F4
:1005200005060895092E0394000C11F4882352F057
:10053000BB0F40F4BF2B11F460FF04C06F5F7F4F0F
:100540008F4F9F4F089557FD9058440F551F59F0F6
:100550005F3F71F04795880F97FB991F61F09F3FB0
:1005600079F087950895121613061406551FF2CFD9
:100570004695F1DF08C0161617061806991FF1CF29
:1005800086957105610508940895E894BB27662750
:100590007727CB0197F908950E94DF020C9492020D
:1005A0000E94840238F00E948B0220F0952311F003
:1005B0000C947B020C94810211240C94C6020E94BC
:1005C000A30270F3959FC1F3950F50E0551F629FF2
:1005D000F001729FBB27F00DB11D639FAA27F00D9C
:1005E000B11DAA1F649F6627B00DA11D661F829FC3
:1005F0002227B00DA11D621F739FB00DA11D621FA8
:10060000839FA00D611D221F749F3327A00D611DC4
:10061000231F849F600D211D822F762F6A2F1124A6
:100620009F5750409AF0F1F088234AF0EE0FFF1FD9
:10063000BB1F661F771F881F91505040A9F79E3F30
:10064000510580F00C947B020C94C6025F3FE4F3EA
:10065000983ED4F3869577956795B795F795E79586
:100660009F5FC1F7FE2B880F911D9695879597F98F
:10067000089597FB072E16F4009407D077FD09D054
:100680000E945C0307FC05D03EF4909581959F4F36
:100690000895709561957F4F0895A29FB001B39F13
:1006A000C001A39F700D811D1124911DB29F700D7B
:1006B000811D1124911D0895AA1BBB1B51E107C088
:1006C000AA1FBB1FA617B70710F0A61BB70B881FE2
:1006D000991F5A95A9F780959095BC01CD01089571
:0406E000F894FFCFBC
:00000001FF
