:100000000C9434000C943E000C943E000C943E0082
:100010000C943E000C943E000C943E000C943E0068
:100020000C943E000C943E000C943E000C943E0058
:100030000C943E000C943E000C943E000C943E0048
:100040000C9472000C943E000C943E000C943E0004
:100050000C943E000C943E000C943E000C943E0028
:100060000C943E000C943E0011241FBECFEFD8E04C
:10007000DEBFCDBF0E947C000C94AD000C9400004C
:100080009B01AC014E51510947345105F8F46E31D2
:100090007105E4F065367105CCF44FEF489FB0016F
:1000A000499F700D1124E4E6F0E0CB01BF010E94EE
:1000B000850068BD429FC001439F900D1124BF0180
:1000C0000E94850067BD85B5856085BD08958AB1AC
:1000D00080668AB9789484B5836A84BD81E0809310
:1000E0006E0008951F920F920FB60F9211240F9079
:1000F0000FBE0F901F9018950E94670068E270E095
:100100008EE190E00E944000F9CF97FB072E16F495
:10011000009407D077FD09D00E94990007FC05D014
:100120003EF4909581959F4F0895709561957F4F0E
:100130000895AA1BBB1B51E107C0AA1FBB1FA6172E
:10014000B70710F0A61BB70B881F991F5A95A9F780
:0E01500080959095BC01CD010895F894FFCFE5
:00000001FF
